{
  "contractName": "EventTickets",
  "abi": [
    {
      "constant": true,
      "inputs": [],
      "name": "owner",
      "outputs": [
        {
          "name": "",
          "type": "address"
        }
      ],
      "payable": false,
      "stateMutability": "view",
      "type": "function"
    },
    {
      "inputs": [
        {
          "name": "_description",
          "type": "string"
        },
        {
          "name": "_url",
          "type": "string"
        },
        {
          "name": "_totalTickets",
          "type": "uint256"
        }
      ],
      "payable": false,
      "stateMutability": "nonpayable",
      "type": "constructor"
    },
    {
      "anonymous": false,
      "inputs": [
        {
          "indexed": true,
          "name": "purchaser",
          "type": "address"
        },
        {
          "indexed": true,
          "name": "ticketsNumber",
          "type": "uint256"
        }
      ],
      "name": "LogBuyTickets",
      "type": "event"
    },
    {
      "anonymous": false,
      "inputs": [
        {
          "indexed": true,
          "name": "refundRequester",
          "type": "address"
        },
        {
          "indexed": true,
          "name": "tickets",
          "type": "uint256"
        }
      ],
      "name": "LogGetRefund",
      "type": "event"
    },
    {
      "anonymous": false,
      "inputs": [
        {
          "indexed": true,
          "name": "contractOwner",
          "type": "address"
        },
        {
          "indexed": true,
          "name": "balance",
          "type": "uint256"
        }
      ],
      "name": "LogEndSale",
      "type": "event"
    },
    {
      "constant": true,
      "inputs": [],
      "name": "readEvent",
      "outputs": [
        {
          "name": "description",
          "type": "string"
        },
        {
          "name": "website",
          "type": "string"
        },
        {
          "name": "totalTickets",
          "type": "uint256"
        },
        {
          "name": "sales",
          "type": "uint256"
        },
        {
          "name": "isOpen",
          "type": "bool"
        }
      ],
      "payable": false,
      "stateMutability": "view",
      "type": "function"
    },
    {
      "constant": true,
      "inputs": [
        {
          "name": "_buyer",
          "type": "address"
        }
      ],
      "name": "getBuyerTicketCount",
      "outputs": [
        {
          "name": "",
          "type": "uint256"
        }
      ],
      "payable": false,
      "stateMutability": "view",
      "type": "function"
    },
    {
      "constant": false,
      "inputs": [
        {
          "name": "ticketsNumber",
          "type": "uint256"
        }
      ],
      "name": "buyTickets",
      "outputs": [
        {
          "name": "",
          "type": "uint256"
        }
      ],
      "payable": true,
      "stateMutability": "payable",
      "type": "function"
    },
    {
      "constant": false,
      "inputs": [],
      "name": "getRefund",
      "outputs": [],
      "payable": false,
      "stateMutability": "nonpayable",
      "type": "function"
    },
    {
      "constant": false,
      "inputs": [],
      "name": "endSale",
      "outputs": [],
      "payable": false,
      "stateMutability": "nonpayable",
      "type": "function"
    }
  ],
  "bytecode": "0x6080604052606460015534801561001557600080fd5b5060405162000dce38038062000dce8339810180604052606081101561003a57600080fd5b81019080805164010000000081111561005257600080fd5b8281019050602081018481111561006857600080fd5b815185600182028301116401000000008211171561008557600080fd5b505092919060200180516401000000008111156100a157600080fd5b828101905060208101848111156100b757600080fd5b81518560018202830111640100000000821117156100d457600080fd5b505092919060200180519060200190929190505050336000806101000a81548173ffffffffffffffffffffffffffffffffffffffff021916908373ffffffffffffffffffffffffffffffffffffffff1602179055506040518060a001604052808481526020018381526020018281526020016000815260200160011515815250600260008201518160000190805190602001906101729291906101cf565b50602082015181600101908051906020019061018f9291906101cf565b50604082015181600201556060820151816003015560808201518160040160006101000a81548160ff021916908315150217905550905050505050610274565b828054600181600116156101000203166002900490600052602060002090601f016020900481019282601f1061021057805160ff191683800117855561023e565b8280016001018555821561023e579182015b8281111561023d578251825591602001919060010190610222565b5b50905061024b919061024f565b5090565b61027191905b8082111561026d576000816000905550600101610255565b5090565b90565b610b4a80620002846000396000f3fe6080604052600436106100555760003560e01c806305aea97c1461005a5780632f3666371461016f578063380d831b146101b15780638da5cb5b146101c8578063b2d5ae441461021f578063edfb916714610236575b600080fd5b34801561006657600080fd5b5061006f61029b565b60405180806020018060200186815260200185815260200184151515158152602001838103835288818151815260200191508051906020019080838360005b838110156100c95780820151818401526020810190506100ae565b50505050905090810190601f1680156100f65780820380516001836020036101000a031916815260200191505b50838103825287818151815260200191508051906020019080838360005b8381101561012f578082015181840152602081019050610114565b50505050905090810190601f16801561015c5780820380516001836020036101000a031916815260200191505b5097505050505050505060405180910390f35b61019b6004803603602081101561018557600080fd5b8101908080359060200190929190505050610414565b6040518082815260200191505060405180910390f35b3480156101bd57600080fd5b506101c6610670565b005b3480156101d457600080fd5b506101dd6107ec565b604051808273ffffffffffffffffffffffffffffffffffffffff1673ffffffffffffffffffffffffffffffffffffffff16815260200191505060405180910390f35b34801561022b57600080fd5b50610234610811565b005b34801561024257600080fd5b506102856004803603602081101561025957600080fd5b81019080803573ffffffffffffffffffffffffffffffffffffffff1690602001909291905050506109c1565b6040518082815260200191505060405180910390f35b6060806000806000600260000160026001016002800154600260030154600260040160009054906101000a900460ff16848054600181600116156101000203166002900480601f0160208091040260200160405190810160405280929190818152602001828054600181600116156101000203166002900480156103605780601f1061033557610100808354040283529160200191610360565b820191906000526020600020905b81548152906001019060200180831161034357829003601f168201915b50505050509450838054600181600116156101000203166002900480601f0160208091040260200160405190810160405280929190818152602001828054600181600116156101000203166002900480156103fc5780601f106103d1576101008083540402835291602001916103fc565b820191906000526020600020905b8154815290600101906020018083116103df57829003601f168201915b50505050509350945094509450945094509091929394565b6000600260040160009054906101000a900460ff1661049b576040517f08c379a000000000000000000000000000000000000000000000000000000000815260040180806020018281038252600f8152602001807f4576656e7420697320636c6f736564000000000000000000000000000000000081525060200191505060405180910390fd5b600060015483029050348111156104fd576040517f08c379a000000000000000000000000000000000000000000000000000000000815260040180806020018281038252602b815260200180610af4602b913960400191505060405180910390fd5b6000600260030154600280015403905083811015610566576040517f08c379a000000000000000000000000000000000000000000000000000000000815260040180806020018281038252602e815260200180610ac6602e913960400191505060405180910390fd5b8360026003016000828254019250508190555083600260050160003373ffffffffffffffffffffffffffffffffffffffff1673ffffffffffffffffffffffffffffffffffffffff16815260200190815260200160002060008282540192505081905550600082340390506000811115610621573373ffffffffffffffffffffffffffffffffffffffff166108fc829081150290604051600060405180830381858888f1935050505015801561061f573d6000803e3d6000fd5b505b843373ffffffffffffffffffffffffffffffffffffffff167f72240c1be87ee789414e12fc30844d39a55d1eaf3b8741489fe381ad2b6cdd4760405160405180910390a3849350505050919050565b6000809054906101000a900473ffffffffffffffffffffffffffffffffffffffff1673ffffffffffffffffffffffffffffffffffffffff163373ffffffffffffffffffffffffffffffffffffffff1614610732576040517f08c379a00000000000000000000000000000000000000000000000000000000081526004018080602001828103825260208152602001807f66756e6374696f6e2063616c6c6572206973206e6f7420746865206f776e657281525060200191505060405180910390fd5b6000600260040160006101000a81548160ff02191690831515021790555060006001546002600301540290503373ffffffffffffffffffffffffffffffffffffffff166108fc829081150290604051600060405180830381858888f193505050501580156107a4573d6000803e3d6000fd5b50803373ffffffffffffffffffffffffffffffffffffffff167f21e7b2f8578199ba3904a63b7cd799784c8cadde57dde563a7de95ef792e256c60405160405180910390a350565b6000809054906101000a900473ffffffffffffffffffffffffffffffffffffffff1681565b6000600260050160003373ffffffffffffffffffffffffffffffffffffffff1673ffffffffffffffffffffffffffffffffffffffff168152602001908152602001600020549050600081116108ce576040517f08c379a000000000000000000000000000000000000000000000000000000000815260040180806020018281038252601f8152602001807f596f752068617665206e6f7420626f7567687420616e79207469636b6574730081525060200191505060405180910390fd5b806002600301600082825403925050819055506000600260050160003373ffffffffffffffffffffffffffffffffffffffff1673ffffffffffffffffffffffffffffffffffffffff168152602001908152602001600020819055506000600154820290503373ffffffffffffffffffffffffffffffffffffffff166108fc829081150290604051600060405180830381858888f19350505050158015610978573d6000803e3d6000fd5b50813373ffffffffffffffffffffffffffffffffffffffff167f492e1d962a477f77890c7cfdb563d7ddc58fee6505741794fa5700ada3c1604160405160405180910390a35050565b600080600260050160008473ffffffffffffffffffffffffffffffffffffffff1673ffffffffffffffffffffffffffffffffffffffff168152602001908152602001600020541415610a7b576040517f08c379a00000000000000000000000000000000000000000000000000000000081526004018080602001828103825260208152602001807f627579657220686173206e6f7420626f75676874207469636b6574732079657481525060200191505060405180910390fd5b600260050160008373ffffffffffffffffffffffffffffffffffffffff1673ffffffffffffffffffffffffffffffffffffffff16815260200190815260200160002054905091905056fe746865726520617265206e6f7420656e6f756768207469636b65747320666f7220746869732070757263686173657472616e73616374696f6e2070726963652069732068696768657220746861742076616c75652073656e74a165627a7a72305820ede2aa2daa85c4762eacf7629d02455be96426a23e9684266e524403339146470029",
  "source": "pragma solidity ^0.5.0;\n\n    /*\n        The EventTickets contract keeps track of the details and ticket sales of one event.\n     */\n\ncontract EventTickets {\n\n    /*\n        Create a public state variable called owner.\n        Use the appropriate keyword to create an associated getter function.\n        Use the appropriate keyword to allow ether transfers.\n     */\n    address payable public owner;\n    uint TICKET_PRICE = 100 wei;\n\n    /*\n        Create a struct called \"Event\".\n        The struct has 6 fields: description, website (URL), totalTickets, sales, buyers, and isOpen.\n        Choose the appropriate variable type for each field.\n        The \"buyers\" field should keep track of addresses and how many tickets each buyer purchases.\n    */\n    struct Event {\n        string description;\n        string url;\n        uint totalTickets;\n        uint sales;\n        bool isOpen;\n        mapping (address => uint) buyers;\n    }\n\n    Event myEvent;\n\n    /*\n        Define 3 logging events.\n        LogBuyTickets should provide information about the purchaser and the number of tickets purchased.\n        LogGetRefund should provide information about the refund requester and the number of tickets refunded.\n        LogEndSale should provide infromation about the contract owner and the balance transferred to them.\n    */\n    event LogBuyTickets (address indexed purchaser, uint indexed ticketsNumber);\n    event LogGetRefund (address indexed refundRequester, uint indexed tickets);\n    event LogEndSale (address indexed contractOwner, uint indexed balance);\n\n    /*\n        Create a modifier that throws an error if the msg.sender is not the owner.\n    */\n    modifier isOwner () {\n        require (msg.sender == owner, 'function caller is not the owner');\n        _;\n    }\n\n    /*\n        Define a constructor.\n        The constructor takes 3 arguments, the description, the URL and the number of tickets for sale.\n        Set the owner to the creator of the contract.\n        Set the appropriate myEvent details.\n    */\n    constructor(string memory _description, string memory _url, uint _totalTickets) public {\n        owner = msg.sender;\n        myEvent = Event({\n            description: _description,\n            url: _url,\n            totalTickets: _totalTickets,\n            isOpen: true,\n            sales: 0\n        });\n    }\n\n    /*\n        Define a function called readEvent() that returns the event details.\n        This function does not modify state, add the appropriate keyword.\n        The returned details should be called description, website, uint totalTickets, uint sales, bool isOpen in that order.\n    */\n    function readEvent()\n        public\n        view\n        returns(string memory description, string memory website, uint totalTickets, uint sales, bool isOpen)\n    {\n        return (myEvent.description, myEvent.url, myEvent.totalTickets, myEvent.sales, myEvent.isOpen);\n    }\n\n    /*\n        Define a function called getBuyerTicketCount().\n        This function takes 1 argument, an address and\n        returns the number of tickets that address has purchased.\n    */\n    function getBuyerTicketCount(address _buyer) public view returns (uint) {\n        require (myEvent.buyers[_buyer] != 0, 'buyer has not bought tickets yet');\n        return myEvent.buyers[_buyer];\n    }\n\n    /*\n        Define a function called buyTickets().\n        This function allows someone to purchase tickets for the event.\n        This function takes one argument, the number of tickets to be purchased.\n        This function can accept Ether.\n        Be sure to check:\n            - That the event isOpen\n            - That the transaction value is sufficient for the number of tickets purchased\n            - That there are enough tickets in stock\n        Then:\n            - add the appropriate number of tickets to the purchasers count\n            - account for the purchase in the remaining number of available tickets\n            - refund any surplus value sent with the transaction\n            - emit the appropriate event\n    */\n    function buyTickets(uint ticketsNumber) public payable returns (uint){\n        require (myEvent.isOpen, 'Event is closed');\n        uint transactionPrice = ticketsNumber * TICKET_PRICE;\n        require (transactionPrice <= msg.value, 'transaction price is higher that value sent');\n\n        uint ticketsAvailable = myEvent.totalTickets - myEvent.sales;\n        require (ticketsAvailable >= ticketsNumber, 'there are not enough tickets for this purchase');\n        myEvent.sales += ticketsNumber;\n        myEvent.buyers[msg.sender] += ticketsNumber;\n\n        uint refund = msg.value - transactionPrice;\n        if(refund > 0)\n            msg.sender.transfer(refund);\n\n        emit LogBuyTickets(msg.sender, ticketsNumber);\n        return ticketsNumber;\n    }\n\n    /*\n        Define a function called getRefund().\n        This function allows someone to get a refund for tickets for the account they purchased from.\n        TODO:\n            - Check that the requester has purchased tickets.\n            - Make sure the refunded tickets go back into the pool of avialable tickets.\n            - Transfer the appropriate amount to the refund requester.\n            - Emit the appropriate event.\n    */\n    function getRefund() public {\n        uint ticketsNumber = myEvent.buyers[msg.sender];\n        require(ticketsNumber > 0, 'You have not bought any tickets');\n        myEvent.sales -= ticketsNumber;\n        myEvent.buyers[msg.sender] = 0;\n        uint refundAmount = ticketsNumber * TICKET_PRICE;\n        msg.sender.transfer(refundAmount);\n        emit LogGetRefund(msg.sender, ticketsNumber);\n    }\n\n    /*\n        Define a function called endSale().\n        This function will close the ticket sales.\n        This function can only be called by the contract owner.\n        TODO:\n            - close the event\n            - transfer the contract balance to the owner\n            - emit the appropriate event\n    */\n    function endSale() public isOwner {\n        myEvent.isOpen = false;\n        uint eventSalesBalacne = myEvent.sales * TICKET_PRICE;\n        msg.sender.transfer(eventSalesBalacne);\n        emit LogEndSale(msg.sender, eventSalesBalacne);\n    }\n}\n",
  "sourcePath": "/Users/cristiamdasilva/apps/consensys-bootcamp/event-tickets-exercise/contracts/EventTickets.sol",
  "compiler": {
    "name": "solc",
    "version": "0.5.8+commit.23d335f2.Emscripten.clang"
  },
  "schemaVersion": "3.0.11",
  "updatedAt": "2019-07-12T22:29:16.086Z",
  "devdoc": {
    "methods": {}
  },
  "userdoc": {
    "methods": {}
  }
}